:0410000063EF3AF070
:1073AC008C000000086E08B002D0819401D081845A
:1073BC0081920750F2EC39F0818212000A6E0A5069
:1073CC008009076E000ED8EC39F009504009076EA1
:1073DC00000ED8EC39F01200016E000E026E070E92
:1073EC00026401D01200819801BE02D0819601D0B6
:1073FC008186818801500124016E022AF0D7015048
:10740C000302F3CF05F0F4CF06F001500402F35061
:10741C00062602500302F350062605C001F006C0F2
:10742C0002F0120003D0040EE82EFED7FF0E012648
:10743C00FF0E0222FF0E0322FF0E04220128F3E1AD
:10744C000228F1E10328EFE10428D8B41200EBD7AD
:10745C00000E0C6E000E0B6E0CBE06D0F80E0B5C04
:10746C00010E0C58D8B008D0000E076E010ED8ECE7
:10747C0039F00B4A0C2AF0D7000E096E000EE4EC22
:10748C0039F0120008D0100E056E940EE82EFED7BF
:10749C00052EFCD700D0FF0E0126FF0E0222FF0E98
:1074AC000322FF0E04220128EEE10228ECE103285E
:1074BC00EAE10428D8B41200E6D700EE3BF00C0E3B
:1074CC00EE6AE806FDE1AC0EF66E730EF76E000E7A
:1074DC00F86E00EE47F010EE04F00900F5CFEEFF69
:1074EC00E550E150FAE1000EF86E00010BEF3EF0B2
:1074FC00000E0C6E0AAE06D0096C0A1ED8B00A2A11
:10750C00010E0C6E09C001F00AC002F0036A8E0E67
:10751C00046E0CC005F0EAEC3BF001C009F002C0AF
:10752C000AF003C00BF0120003500410D8B418D0AA
:10753C00010E056E04D0D89003360436052A04AE2D
:10754C00FAD70350015C04500258D8A004D0035061
:10755C00015E0450025AD89004320332052EF1D742
:10756C0001C001F002C002F0120011C017F012C0ED
:10757C0018F014AE0CD011C0D9FF12C0DAFF2D0ECA
:10758C00DF6E114A122A136C141ED8B0142A11C0C3
:10759C0008F012C009F013C00AF014C00BF015C0AB
:1075AC000CF016C00DF098EC3BF0120093909392F7
:1075BC009394939693988182819000F08180210E10
:1075CC00076E000ED8EC39F0B00E076E000ED8EC3A
:1075DC0039F0040E076E000ED8EC39F0140E076E5D
:1075EC00000ED8EC39F0200E076E000ED8EC39F0F6
:1075FC000C0E076E000ED8EC39F01200000E066E61
:10760C00000E056E03500410D8B41CD0010E076E8A
:10761C0004D0D89003360436072A04AEFAD7D89093
:10762C00053606360350015C04500258D8A005D02C
:10763C000350015E0450025A0580D8900432033284
:10764C00072EEDD705C001F006C002F0120011C0E4
:10765C0009F01050E4EC39F014D00EC0F6FF0FC056
:10766C00F7FFF86A070EF76403D00800F55005D051
:10767C00F6CFD9FFF7CFDAFFDF505BEC3BF00E4AC9
:10768C000F2A0EC0F6FF0FC0F7FFF86A070EF7645B
:10769C0003D00800F55005D0F6CFD9FFF7CFDAFFAD
:1076AC00DF500009D8B41200D8D70B6E000E076E4D
:1076BC00010ED8EC39F0000E0D6E000E0C6E0DBEE6
:1076CC0006D00D5029E1050E0C5CD8B025D0E00E8B
:1076DC000B24016E026AFF0E0222000E046E050ED0
:1076EC00036E05EC3AF0050E096E7E0E0A6E015023
:1076FC00092602500A220C5009260D500A2209C0F4
:10770C00F6FF0AC0F7FF0800F5CF07F0010ED8EC22
:10771C0039F00C4A0D2AD3D7000E076E010ED8ECA7
:10772C0039F012000AC00EF00BC00FF00EC001F0C1
:10773C000FC002F00CC003F00DC004F004EC3BF0E1
:10774C0001C00EF002C00FF0084A092A0E500F10AB
:10775C00D8A4ECD708C0D9FF09C0DAFF000EDF6E41
:10776C000806D8A009060AC001F00BC002F00CC034
:10777C0003F00DC004F09AEC3AF00150106E0AC000
:10778C0001F00BC002F00CC003F00DC004F004ECCF
:10779C003BF001C00AF002C00BF0090E106402D0DD
:1077AC00070E1026300E102608C0D9FF09C0DAFFCC
:1077BC0010C0DFFF0806D8A009060A500B10D8A489
:1077CC00D2D7084A092A12000450D8B405D0015067
:1077DC0002100310D8A40CD0000E016E000E026E25
:1077EC00000E036E1200042AD890033202320132CA
:1077FC00000E0114066E000E0214076EFE0E03142A
:10780C00086E065007100810D8B40CD0ECD7042A18
:10781C00010E0126000E0222000E0322D890033224
:10782C0002320132000E0114066E000E0214076EB5
:10783C00FF0E0314086E065007100810D8B406D0BB
:10784C00E6D70406D89001360236033602BE03D0C2
:10785C00020E0460F6D704A0029ED89004320450A5
:10786C0003120550D8A4038E01C001F002C002F02F
:10787C0003C003F012000FC013F0146A156A0E3423
:10788C00133601E314801350166E1650D8A407D08B
:10789C00000E0D6E000E0E6E000E0F6E120012C05A
:1078AC0013F0146A156A1134133601E31480135063
:1078BC001B6E1B50D8A407D0000E0D6E000E0E6E62
:1078CC00000E0F6E12001B507B0F16260FC01BF004
:1078DC0012501B1A800E1B160E8E118EFF0E1016D8
:1078EC00FF0E1116000E1216000E176E000E186EFB
:1078FC00000E196E070E1A6E0DA006D0105017262A
:10790C001150182212501922D8900F320E320D320B
:10791C00D8901036113612361A2EEED7090E1A6E72
:10792C000DA006D0105017261150182212501922F3
:10793C00D8900F320E320D32D890193218321732CD
:10794C001A2EEED717C001F018C002F019C003F0C0
:10795C0016C004F01BC005F0EAEC3BF001C00DF0C2
:10796C0002C00EF003C00FF012002AC02CF02D6ADA
:10797C002E6A29342C3601E32D802C50366E36506D
:10798C00D8A409D0000E286E000E296E000E2A6EA7
:10799C00000E2B6E1200170E2C6E28C02DF029C075
:1079AC002EF02AC02FF02C28306E04D0D8902F3215
:1079BC002E322D32302EFAD72D50316E298EFF0EED
:1079CC002816FF0E2916000E2A162850326E295042
:1079DC00336E2A50346E356A8E0E365E36AE16D045
:1079EC003650800A8F0FD8B009D0000E286E000ECA
:1079FC00296E000E2A6E000E2B6E1200D8903532B6
:107A0C00343233323232363EF9D715D0170E366453
:107A1C000FD0000E286E000E296E000E2A6E000E7E
:107A2C002B6E1200D8903236333634363536360655
:107A3C003650D8A4F7D73150D8B408D0351E341EE0
:107A4C00331E326C000E33223422352232C028F021
:107A5C0033C029F034C02AF035C02BF012001EC000
:107A6C0022F0236A246A1D34223601E3238022503B
:107A7C00276E21C022F0236A246A2034223601E3C7
:107A8C0023802250266E2750D8B40BD02650275C6A
:107A9C00D8B00ED0275000082624226E180E22646F
:107AAC0007D01FC01CF020C01DF021C01EF012001A
:107ABC002650D8B40BD02750265CD8B00ED0265008
:107ACC0000082724226E180E226407D01CC01CF05C
:107ADC001DC01DF01EC01EF01200060E256E1EBE2F
:107AEC00258E21BE258C1D8EFF0E1C16FF0E1D161D
:107AFC00000E1E16208EFF0E1F16FF0E2016000EF7
:107B0C0021162650275CD8B01BD0D8901F362036B3
:107B1C002136260627502618D8B40DD0250625C0A8
:107B2C0022F0070E2216D8B406D0EFD7D8901E320A
:107B3C001D321C32272A26502718D8B41FD0F6D74E
:107B4C002750265CD8B01AD0D8901C361D361E365D
:107B5C00270627502618D8B40DD0250625C022F0AC
:107B6C00070E2216D8B406D0EFD7D8902132203287
:107B7C001F32262A26502718D8A4F7D725AE0CD0AA
:107B8C00FF0E1C1AFF0E1D1AFF0E1E1A010E1C26CC
:107B9C00000E1D22000E1E2225AC0CD0FF0E1F1A4B
:107BAC00FF0E201AFF0E211A010E1F26000E202296
:107BBC00000E2122000E256E1C501F261D50202267
:107BCC001E50212221AE0ED0FF0E1F1AFF0E201ABE
:107BDC00FF0E211A010E1F26000E2022000E21225C
:107BEC00010E256E1FC001F020C002F021C003F071
:107BFC0027C004F025C005F0EAEC3BF001C01CF0F6
:107C0C0002C01DF003C01EF01200000EC26E000E6A
:107C1C00C16EC180C182C184C1869268000E956E0E
:107C2C00000E936EDCEC3AF02EEC3AF00A0E016E7C
:107C3C00000E026E000E036E000E046E48EC3AF05D
:107C4C00E50E0E6E7F0E0F6E000E106E000E116E96
:107C5C002DEC3BF0F60E0E6E7F0E0F6E000E106EBE
:107C6C00020E116E2DEC3BF0410E116E000E126ED9
:107C7C0047C013F048C014F0000E166E0A0E156EB5
:107C8C00BBEC3AF0410E0E6E000E0F6E000E106E35
:107C9C00010E116E2DEC3BF03D0E116E000E126EAE
:107CAC0045C013F046C014F0000E166E0A0E156E89
:107CBC00BBEC3AF03D0E0E6E000E0F6E000E106E09
:107CCC00030E116E2DEC3BF0000E1F6E0C0E206E91
:107CDC00430E216E9A0E106E190E116E400E126E1E
:107CEC0045C009F046C00AF07EEC3AF009C00DF030
:107CFC000AC00EF00BC00FF041EC3CF00DC01CF0B4
:107D0C000EC01DF00FC01EF035EC3DF01CC028F06D
:107D1C001DC029F01EC02AF0BBEC3CF028C047F077
:107D2C0029C048F02AC049F02BC04AF0000E3C6E26
:107D3C00000E3B6E3CBE06D03C5032E1140E3B5C58
:107D4C00D8B02ED08C8847C001F048C002F049C092
:107D5C0003F04AC004F018EC3AF08C9847C037F0A6
:107D6C0048C038F049C039F04AC03AF0371E381EC6
:107D7C00391E3A1E372A000E382239223A22300E8A
:107D8C003724016E110E3820026E000E3920036E5E
:107D9C00000E3A20046E18EC3AF03B4A3C2ACAD743
:107DAC004ABE11D04A50491006E1450E475C020EFE
:107DBC004858D8A008D0440E476E020E486E000EEC
:107DCC00496E000E4A6E46BE0AD0465004E1B50E0E
:107DDC00455CD8A004D0000E466EB40E456E80B63D
:107DEC0004D00A0E4526000E462280B229D7F60E84
:107DFC004526FF0E462224D700000000000000009C
:107E0C005F00000007000700147F147F14242A7FF2
:107E1C002A122313086462364955225000050300C8
:107E2C0000001C2241000041221C0014083E0814D2
:107E3C0008083E0808005030000008080808080030
:107E4C006060000020100804023E5149453E00428B
:107E5C007F400042615149462141454B3118141273
:107E6C007F1027454545393C4A4949300171090580
:107E7C00033649494936064949291E003636000061
:107E8C000056360000081422410014141414140077
:107E9C00412214080201510906324979413E7E11F2
:107EAC0011117E7F494949363E414141227F414172
:107EBC00221C7F494949417F090909013E41494931
:107ECC007A7F0808087F00417F41002040413F0134
:107EDC007F081422417F404040407F020C027F7F8C
:107EEC000408107F3E4141413E7F090909063E418D
:107EFC0051215E7F09192946464949493101017FC3
:107F0C0001013F4040403F1F2040201F3F40384070
:107F1C003F6314081463070870080761514945430F
:107F2C00007F41410002040810200041417F000401
:107F3C000201020440404040400001020400205471
:107F4C005454787F4844443838444444203844449A
:107F5C00487F3854545418087E0901020C5252526E
:107F6C003E7F0804047800447D40002040443D00DE
:107F7C007F1028440000417F40007C041804787C6A
:107F8C000804047838444444387C14141408081445
:107F9C0014187C7C080404084854545420043F44AE
:107FAC0040203C4040207C1C2040201C3C40304069
:107FBC003C44281028440C5050503C4464544C44CD
:107FCC00000836410000007F000000413608001018
:107FDC0008081008784641467844656C617920643D
:107FEC006520536572766F3A2000477261646F7337
:047FFC003A20000027
:020000040020DA
:08000000FFFFFFFFFFFFFFFF00
:020000040030CA
:0E000000240E3F1EFF8181FF0FC00FE00F4056
:00000001FF
