Microchip MPLAB XC8 Compiler V1.37 ()

Linker command line:

-W-3 --edf=C:\Program Files\Microchip\xc8\v1.37\dat\en_msgs.txt -cs \
  -h+dist/default/production\Test_Servo.X.production.sym \
  --cmf=dist/default/production\Test_Servo.X.production.cmf -z -Q18F4550 \
  -oC:\Users\Brandy\AppData\Local\Temp\saok.2 \
  -Mdist/default/production/Test_Servo.X.production.map -E1 -ver=XC8 \
  -ASTACK=060h-07ffh -pstack=STACK -ACODE=01000h-07FFFh \
  -ACONST=01000h-07FFFh -ASMALLCONST=01000h-010FFhx112 \
  -AMEDIUMCONST=01000h-07FFFh -ACOMRAM=01h-05Fh -AABS1=00h-07FFh \
  -ABIGRAM=01h-07FFh -ARAM=060h-0FFh,0100h-01FFhx7 -ABANK0=060h-0FFh \
  -ABANK1=0100h-01FFh -ABANK2=0200h-02FFh -ABANK3=0300h-03FFh \
  -ABANK4=0400h-04FFh -ABANK5=0500h-05FFh -ABANK6=0600h-06FFh \
  -ABANK7=0700h-07FFh -ASFR=0F60h-0FFFh \
  -preset_vec=01000h,intcode,intcodelo,powerup,init,end_init -pramtop=0800h \
  -psmallconst=SMALLCONST -pmediumconst=MEDIUMCONST -pconst=CONST \
  -AFARRAM=00h-00h -ACONFIG=0300000h-030000Dh -pconfig=CONFIG \
  -AIDLOC=0200000h-0200007h -pidloc=IDLOC -AEEDATA=0F00000h-0F000FFh \
  -peeprom_data=EEDATA \
  -prdata=COMRAM,nvrram=COMRAM,nvbit=COMRAM,rbss=COMRAM,rbit=COMRAM \
  -pfarbss=FARRAM,fardata=FARRAM,nvFARRAM=FARRAM \
  -pintsave_regs=BIGRAM,bigbss=BIGRAM,bigdata=BIGRAM -pbss=RAM \
  -pidata=CODE,irdata=CODE,ibigdata=CODE,ifardata=CODE -prparam=COMRAM \
  C:\Users\Brandy\AppData\Local\Temp\saok.obj \
  dist/default/production\Test_Servo.X.production.obj 

Object code version is 3.11

Machine type is 18F4550

Call graph: (short form)




                Name                               Link     Load   Length Selector   Space Scale
C:\Users\Brandy\AppData\Local\Temp\saok.obj
                end_init                           1000     1000        4      800       0
                idloc                            200000   200000        8   200000       0
                config                           300000   300000        E   300000       0
dist/default/production\Test_Servo.X.production.obj
                mediumconst                        7E04     7E04      1FC     3F02       0
                text19                             73E4     73E4       26     39F2       0
                text18                             73B0     73B0       18     39D8       0
                text17                             73C8     73C8       1C     39E4       0
                text16                             745C     745C       34     3A2E       0
                text15                             75B8     75B8       50     3ADC       0
                text14                             740A     740A       26     3A05       0
                text13                             76B6     76B6       7A     3B5B       0
                text12                             765A     765A       5C     3B2D       0
                text11                             77D4     77D4       AE     3BEA       0
                text10                             74FC     74FC       38     3A7E       0
                text9                              7A6A     7A6A      1AC     3D35       0
                text8                              7882     7882       F4     3C41       0
                text7                              7976     7976       F4     3CBB       0
                text6                              7490     7490       36     3A48       0
                text5                              7430     7430       2C     3A18       0
                text4                              7608     7608       52     3B04       0
                text3                              7534     7534       42     3A9A       0
                text2                              7730     7730       A4     3B98       0
                text1                              7576     7576       42     3ABB       0
                text0                              7C16     7C16      1EE     3E0B       0
                cstackCOMRAM                          1        1       3A        1       1
                dataCOMRAM                           47       47        4        1       1
                bssCOMRAM                            3B       3B        C        1       1
                cinit                              74C6     74C6       36     3A63       0
                idataCOMRAM                        73AC     73AC        4     73AC       0

TOTAL           Name                               Link     Load   Length     Space
        CLASS   STACK          

        CLASS   CODE           
                end_init                           1000     1000        4         0
                text19                             73E4     73E4       26         0
                text18                             73B0     73B0       18         0
                text17                             73C8     73C8       1C         0
                text16                             745C     745C       34         0
                text15                             75B8     75B8       50         0
                text14                             740A     740A       26         0
                text13                             76B6     76B6       7A         0
                text12                             765A     765A       5C         0
                text11                             77D4     77D4       AE         0
                text10                             74FC     74FC       38         0
                text9                              7A6A     7A6A      1AC         0
                text8                              7882     7882       F4         0
                text7                              7976     7976       F4         0
                text6                              7490     7490       36         0
                text5                              7430     7430       2C         0
                text4                              7608     7608       52         0
                text3                              7534     7534       42         0
                text2                              7730     7730       A4         0
                text1                              7576     7576       42         0
                text0                              7C16     7C16      1EE         0
                cinit                              74C6     74C6       36         0
                idataCOMRAM                        73AC     73AC        4         0

        CLASS   CONST          

        CLASS   SMALLCONST     

        CLASS   MEDIUMCONST    
                mediumconst                        7E04     7E04      1FC         0

        CLASS   COMRAM         
                cstackCOMRAM                          1        1       3A         1
                dataCOMRAM                           47       47        4         1
                bssCOMRAM                            3B       3B        C         1

        CLASS   ABS1           

        CLASS   BIGRAM         

        CLASS   RAM            

        CLASS   BANK0          

        CLASS   BANK1          

        CLASS   BANK2          

        CLASS   BANK3          

        CLASS   BANK4          

        CLASS   BANK5          

        CLASS   BANK6          

        CLASS   BANK7          

        CLASS   SFR            

        CLASS   FARRAM         

        CLASS   CONFIG         
                config                           300000   300000        E         0

        CLASS   IDLOC          
                idloc                            200000   200000        8         0

        CLASS   EEDATA         



SEGMENTS        Name                           Load    Length   Top    Selector   Space  Class

                cstackCOMRAM                   000001  00004A  00004B         1       1  COMRAM  
                reset_vec                      001000  000004  001004       800       0  CODE    
                idataCOMRAM                    0073AC  000004  0073B0      73AC       0  CODE    
                text18                         0073B0  000018  0073C8      39D8       0  CODE    
                text17                         0073C8  00001C  0073E4      39E4       0  CODE    
                text19                         0073E4  000026  00740A      39F2       0  CODE    
                text14                         00740A  000026  007430      3A05       0  CODE    
                text5                          007430  00002C  00745C      3A18       0  CODE    
                text16                         00745C  000034  007490      3A2E       0  CODE    
                text6                          007490  000036  0074C6      3A48       0  CODE    
                cinit                          0074C6  000036  0074FC      3A63       0  CODE    
                text10                         0074FC  000038  007534      3A7E       0  CODE    
                text3                          007534  000042  007576      3A9A       0  CODE    
                text1                          007576  000042  0075B8      3ABB       0  CODE    
                text15                         0075B8  000050  007608      3ADC       0  CODE    
                text4                          007608  000052  00765A      3B04       0  CODE    
                text12                         00765A  00005C  0076B6      3B2D       0  CODE    
                text13                         0076B6  00007A  007730      3B5B       0  CODE    
                text2                          007730  0000A4  0077D4      3B98       0  CODE    
                text11                         0077D4  0000AE  007882      3BEA       0  CODE    
                text8                          007882  0000F4  007976      3C41       0  CODE    
                text7                          007976  0000F4  007A6A      3CBB       0  CODE    
                text9                          007A6A  0001AC  007C16      3D35       0  CODE    
                text0                          007C16  0001EE  007E04      3E0B       0  CODE    
                mediumconst                    007E04  0001FC  008000      3F02       0  MEDIUMCO
                idloc                          200000  000008  200008    200000       0  IDLOC   
                config                         300000  00000E  30000E    300000       0  CONFIG  


UNUSED ADDRESS RANGES

        Name                Unused          Largest block    Delta
        BANK0            000060-0000FF               A0
        BANK1            000100-0001FF              100
        BANK2            000200-0002FF              100
        BANK3            000300-0003FF              100
        BANK4            000400-0004FF              100
        BANK5            000500-0005FF              100
        BANK6            000600-0006FF              100
        BANK7            000700-0007FF              100
        BIGRAM           00004B-0007FF              7B5
        CODE             001004-0073AB             63A8
        COMRAM           00004B-00005F               15
        CONST            001004-0073AB             63A8
        EEDATA           F00000-F000FF              100
        FARRAM           000000-000000                1
        MEDIUMCONST      001004-0073AB             63A8
        RAM              000060-0007FF              100
        SFR              000F60-000FFF               A0
        SMALLCONST       001004-0073AB              100
        STACK            000060-0007FF              7A0

                                  Symbol Table

?___awtoft                     cstackCOMRAM 000009
?___ftadd                      cstackCOMRAM 00001C
?___ftmul                      cstackCOMRAM 00000D
?___ftpack                     cstackCOMRAM 000001
?___fttol                      cstackCOMRAM 000028
?___lwdiv                      cstackCOMRAM 000001
?___lwmod                      cstackCOMRAM 000001
?___wmul                       cstackCOMRAM 000001
EYRLCD_Clear@index             cstackCOMRAM 00000B
EYRLCD_GotoXY@X                cstackCOMRAM 00000A
EYRLCD_GotoXY@Y                cstackCOMRAM 000009
EYRLCD_Write@DATA              cstackCOMRAM 000007
EYRLCD_Write@MODE              cstackCOMRAM 000008
EYRLCD_WriteByte@DATA_CHAR     cstackCOMRAM 00000B
EYRLCD_WriteByte@index         cstackCOMRAM 00000C
EYRLCD_WriteSPI@BitCount       cstackCOMRAM 000002
EYRLCD_WriteSPI@outputDATA     cstackCOMRAM 000001
EYRLCD_WriteString@DATA_STRING cstackCOMRAM 00000E
EYRLCD_WriteString@X           cstackCOMRAM 000010
EYRLCD_WriteString@Y           cstackCOMRAM 000011
_ADCON0                        (abs)        000FC2
_ADCON1                        (abs)        000FC1
_ADCON1bits                    (abs)        000FC1
_EYRLCD_Clear                  text16       00745C
_EYRLCD_GotoXY                 text17       0073C8
_EYRLCD_Init                   text15       0075B8
_EYRLCD_Write                  text18       0073B0
_EYRLCD_WriteByte              text13       0076B6
_EYRLCD_WriteSPI               text19       0073E4
_EYRLCD_WriteString            text12       00765A
_FONT_1                        mediumconst  007E05
_Grados                        bssCOMRAM    000045
_GradosC                       bssCOMRAM    00003D
_LATDbits                      (abs)        000F8C
_PORTAbits                     (abs)        000F80
_PORTBbits                     (abs)        000F81
_Servo                         dataCOMRAM   000047
_ServoC                        bssCOMRAM    000041
_TRISA                         (abs)        000F92
_TRISB                         (abs)        000F93
_TRISB0                        (abs)        007C98
_TRISB1                        (abs)        007C99
_TRISB2                        (abs)        007C9A
_TRISB3                        (abs)        007C9B
_TRISB4                        (abs)        007C9C
_TRISD                         (abs)        000F95
__CFG_BOR$ON                   (abs)        000000
__CFG_BORV$3                   (abs)        000000
__CFG_CP0$OFF                  (abs)        000000
__CFG_CP1$OFF                  (abs)        000000
__CFG_CPB$OFF                  (abs)        000000
__CFG_CPUDIV$OSC1_PLL2         (abs)        000000
__CFG_EBTR0$OFF                (abs)        000000
__CFG_EBTR1$OFF                (abs)        000000
__CFG_EBTRB$OFF                (abs)        000000
__CFG_FCMEN$OFF                (abs)        000000
__CFG_FOSC$HSPLL_HS            (abs)        000000
__CFG_IESO$OFF                 (abs)        000000
__CFG_LPT1OSC$OFF              (abs)        000000
__CFG_LVP$OFF                  (abs)        000000
__CFG_MCLRE$ON                 (abs)        000000
__CFG_PBADEN$OFF               (abs)        000000
__CFG_PLLDIV$5                 (abs)        000000
__CFG_PWRT$OFF                 (abs)        000000
__CFG_STVREN$ON                (abs)        000000
__CFG_USBDIV$2                 (abs)        000000
__CFG_VREGEN$ON                (abs)        000000
__CFG_WDT$OFF                  (abs)        000000
__CFG_WDTPS$32768              (abs)        000000
__CFG_WRT0$OFF                 (abs)        000000
__CFG_WRT1$OFF                 (abs)        000000
__CFG_WRTB$OFF                 (abs)        000000
__CFG_WRTC$OFF                 (abs)        000000
__CFG_XINST$OFF                (abs)        000000
__HRAM                         (abs)        000000
__Habs1                        abs1         000000
__Hbank0                       bank0        000000
__Hbank1                       bank1        000000
__Hbank2                       bank2        000000
__Hbank3                       bank3        000000
__Hbank4                       bank4        000000
__Hbank5                       bank5        000000
__Hbank6                       bank6        000000
__Hbank7                       bank7        000000
__Hbigbss                      bigbss       000000
__Hbigdata                     bigdata      000000
__Hbigram                      bigram       000000
__Hbss                         bss          000000
__HbssCOMRAM                   bssCOMRAM    000000
__Hcinit                       cinit        000000
__Hclrtext                     clrtext      000000
__Hcomram                      comram       000000
__Hconfig                      config       30000E
__Hconst                       const        000000
__HcstackCOMRAM                cstackCOMRAM 000000
__Hdata                        data         000000
__HdataCOMRAM                  dataCOMRAM   000000
__Heeprom_data                 eeprom_data  000000
__Hend_init                    end_init     001004
__Hfarbss                      farbss       000000
__Hfardata                     fardata      000000
__Hibigdata                    ibigdata     000000
__Hidata                       idata        000000
__HidataCOMRAM                 idataCOMRAM  000000
__Hidloc                       idloc        200008
__Hifardata                    ifardata     000000
__Hinit                        init         001000
__Hintcode                     intcode      001000
__Hintcode_body                intcode_body 000000
__Hintcodelo                   intcodelo    001000
__Hintentry                    intentry     000000
__Hintret                      intret       000000
__Hintsave_regs                intsave_regs 000000
__Hirdata                      irdata       000000
__Hmediumconst                 mediumconst  008000
__HnvFARRAM                    nvFARRAM     000000
__Hnvbit                       nvbit        000000
__Hnvrram                      nvrram       000000
__Hparam                       rparam       000000
__Hpowerup                     powerup      001000
__Hram                         ram          000000
__Hramtop                      ramtop       000800
__Hrbit                        rbit         000000
__Hrbss                        rbss         000000
__Hrdata                       rdata        000000
__Hreset_vec                   reset_vec    001000
__Hrparam                      rparam       000000
__Hsfr                         sfr          000000
__Hsmallconst                  smallconst   000000
__Hspace_0                     (abs)        30000E
__Hspace_1                     (abs)        00004B
__Hspace_2                     (abs)        000000
__Hstack                       stack        000000
__Hstruct                      struct       000000
__Htemp                        temp         000000
__Htext                        text         000000
__Htext0                       text0        000000
__Htext1                       text1        000000
__Htext10                      text10       000000
__Htext11                      text11       000000
__Htext12                      text12       000000
__Htext13                      text13       000000
__Htext14                      text14       000000
__Htext15                      text15       000000
__Htext16                      text16       000000
__Htext17                      text17       000000
__Htext18                      text18       000000
__Htext19                      text19       000000
__Htext2                       text2        000000
__Htext3                       text3        000000
__Htext4                       text4        000000
__Htext5                       text5        000000
__Htext6                       text6        000000
__Htext7                       text7        000000
__Htext8                       text8        000000
__Htext9                       text9        000000
__LRAM                         (abs)        000001
__Labs1                        abs1         000000
__Lbank0                       bank0        000000
__Lbank1                       bank1        000000
__Lbank2                       bank2        000000
__Lbank3                       bank3        000000
__Lbank4                       bank4        000000
__Lbank5                       bank5        000000
__Lbank6                       bank6        000000
__Lbank7                       bank7        000000
__Lbigbss                      bigbss       000000
__Lbigdata                     bigdata      000000
__Lbigram                      bigram       000000
__Lbss                         bss          000000
__LbssCOMRAM                   bssCOMRAM    000000
__Lcinit                       cinit        000000
__Lclrtext                     clrtext      000000
__Lcomram                      comram       000000
__Lconfig                      config       300000
__Lconst                       const        000000
__LcstackCOMRAM                cstackCOMRAM 000000
__Ldata                        data         000000
__LdataCOMRAM                  dataCOMRAM   000000
__Leeprom_data                 eeprom_data  000000
__Lend_init                    end_init     001000
__Lfarbss                      farbss       000000
__Lfardata                     fardata      000000
__Libigdata                    ibigdata     000000
__Lidata                       idata        000000
__LidataCOMRAM                 idataCOMRAM  000000
__Lidloc                       idloc        200000
__Lifardata                    ifardata     000000
__Linit                        init         001000
__Lintcode                     intcode      001000
__Lintcode_body                intcode_body 000000
__Lintcodelo                   intcodelo    001000
__Lintentry                    intentry     000000
__Lintret                      intret       000000
__Lintsave_regs                intsave_regs 000000
__Lirdata                      irdata       000000
__Lmediumconst                 mediumconst  007E04
__LnvFARRAM                    nvFARRAM     000000
__Lnvbit                       nvbit        000000
__Lnvrram                      nvrram       000000
__Lparam                       rparam       000000
__Lpowerup                     powerup      001000
__Lram                         ram          000000
__Lramtop                      ramtop       000800
__Lrbit                        rbit         000000
__Lrbss                        rbss         000000
__Lrdata                       rdata        000000
__Lreset_vec                   reset_vec    001000
__Lrparam                      rparam       000000
__Lsfr                         sfr          000000
__Lsmallconst                  smallconst   000000
__Lspace_0                     (abs)        000000
__Lspace_1                     (abs)        000000
__Lspace_2                     (abs)        000000
__Lstack                       stack        000000
__Lstruct                      struct       000000
__Ltemp                        temp         000000
__Ltext                        text         000000
__Ltext0                       text0        000000
__Ltext1                       text1        000000
__Ltext10                      text10       000000
__Ltext11                      text11       000000
__Ltext12                      text12       000000
__Ltext13                      text13       000000
__Ltext14                      text14       000000
__Ltext15                      text15       000000
__Ltext16                      text16       000000
__Ltext17                      text17       000000
__Ltext18                      text18       000000
__Ltext19                      text19       000000
__Ltext2                       text2        000000
__Ltext3                       text3        000000
__Ltext4                       text4        000000
__Ltext5                       text5        000000
__Ltext6                       text6        000000
__Ltext7                       text7        000000
__Ltext8                       text8        000000
__Ltext9                       text9        000000
__S0                           (abs)        30000E
__S1                           (abs)        00004B
__S2                           (abs)        000000
___awtoft                      text10       0074FC
___awtoft@c                    cstackCOMRAM 000009
___awtoft@sign                 cstackCOMRAM 00000C
___ftadd                       text9        007A6A
___ftadd@exp1                  cstackCOMRAM 000027
___ftadd@exp2                  cstackCOMRAM 000026
___ftadd@f1                    cstackCOMRAM 00001C
___ftadd@f2                    cstackCOMRAM 00001F
___ftadd@sign                  cstackCOMRAM 000025
___ftmul                       text8        007882
___ftmul@cntr                  cstackCOMRAM 00001A
___ftmul@exp                   cstackCOMRAM 000016
___ftmul@f1                    cstackCOMRAM 00000D
___ftmul@f2                    cstackCOMRAM 000010
___ftmul@f3_as_product         cstackCOMRAM 000017
___ftmul@sign                  cstackCOMRAM 00001B
___ftpack                      text11       0077D4
___ftpack@arg                  cstackCOMRAM 000001
___ftpack@exp                  cstackCOMRAM 000004
___ftpack@sign                 cstackCOMRAM 000005
___fttol                       text7        007976
___fttol@exp1                  cstackCOMRAM 000036
___fttol@f1                    cstackCOMRAM 000028
___fttol@lval                  cstackCOMRAM 000032
___fttol@sign1                 cstackCOMRAM 000031
___inthi_sp                    stack        000000
___intlo_sp                    stack        000000
___lwdiv                       text4        007608
___lwdiv@counter               cstackCOMRAM 000007
___lwdiv@dividend              cstackCOMRAM 000001
___lwdiv@divisor               cstackCOMRAM 000003
___lwdiv@quotient              cstackCOMRAM 000005
___lwmod                       text3        007534
___lwmod@counter               cstackCOMRAM 000005
___lwmod@dividend              cstackCOMRAM 000001
___lwmod@divisor               cstackCOMRAM 000003
___param_bank                  (abs)        000010
___rparam_used                 (abs)        000001
___sp                          stack        000000
___wmul                        text14       00740A
___wmul@multiplicand           cstackCOMRAM 000003
___wmul@multiplier             cstackCOMRAM 000001
___wmul@product                cstackCOMRAM 000005
__accesstop                    (abs)        000060
__activetblptr                 (abs)        000002
__end_of_EYRLCD_Clear          text16       007490
__end_of_EYRLCD_GotoXY         text17       0073E4
__end_of_EYRLCD_Init           text15       007608
__end_of_EYRLCD_Write          text18       0073C8
__end_of_EYRLCD_WriteByte      text13       007730
__end_of_EYRLCD_WriteSPI       text19       00740A
__end_of_EYRLCD_WriteString    text12       0076B6
__end_of_FONT_1                mediumconst  007FE5
__end_of___awtoft              text10       007534
__end_of___ftadd               text9        007C16
__end_of___ftmul               text8        007976
__end_of___ftpack              text11       007882
__end_of___fttol               text7        007A6A
__end_of___lwdiv               text4        00765A
__end_of___lwmod               text3        007576
__end_of___wmul                text14       007430
__end_of__initialization       cinit        0074F2
__end_of_delay_ms              text6        0074C6
__end_of_delay_us              text5        00745C
__end_of_itoa                  text1        0075B8
__end_of_main                  text0        007E04
__end_of_utoa                  text2        0077D4
__initialization               cinit        0074C6
__mediumconst                  mediumconst  007E04
__pbssCOMRAM                   bssCOMRAM    00003B
__pcinit                       cinit        0074C6
__pcstackCOMRAM                cstackCOMRAM 000001
__pdataCOMRAM                  dataCOMRAM   000047
__pidataCOMRAM                 idataCOMRAM  0073AC
__pmediumconst                 mediumconst  007E04
__ptext0                       text0        007C16
__ptext1                       text1        007576
__ptext10                      text10       0074FC
__ptext11                      text11       0077D4
__ptext12                      text12       00765A
__ptext13                      text13       0076B6
__ptext14                      text14       00740A
__ptext15                      text15       0075B8
__ptext16                      text16       00745C
__ptext17                      text17       0073C8
__ptext18                      text18       0073B0
__ptext19                      text19       0073E4
__ptext2                       text2        007730
__ptext3                       text3        007534
__ptext4                       text4        007608
__ptext5                       text5        007430
__ptext6                       text6        007490
__ptext7                       text7        007976
__ptext8                       text8        007882
__ptext9                       text9        007A6A
__ramtop                       ramtop       000800
__size_of_EYRLCD_Clear         (abs)        000000
__size_of_EYRLCD_GotoXY        (abs)        000000
__size_of_EYRLCD_Init          (abs)        000000
__size_of_EYRLCD_Write         (abs)        000000
__size_of_EYRLCD_WriteByte     (abs)        000000
__size_of_EYRLCD_WriteSPI      (abs)        000000
__size_of_EYRLCD_WriteString   (abs)        000000
__size_of___awtoft             (abs)        000000
__size_of___ftadd              (abs)        000000
__size_of___ftmul              (abs)        000000
__size_of___ftpack             (abs)        000000
__size_of___fttol              (abs)        000000
__size_of___lwdiv              (abs)        000000
__size_of___lwmod              (abs)        000000
__size_of___wmul               (abs)        000000
__size_of_delay_ms             (abs)        000000
__size_of_delay_us             (abs)        000000
__size_of_itoa                 (abs)        000000
__size_of_main                 (abs)        000000
__size_of_utoa                 (abs)        000000
__smallconst                   smallconst   000000
_delay_ms                      text6        007490
_delay_us                      text5        007430
_i                             bssCOMRAM    00003B
_itoa                          text1        007576
_main                          text0        007C16
_utoa                          text2        007730
delay_ms@n                     cstackCOMRAM 000001
delay_us@n                     cstackCOMRAM 000001
end_of_initialization          cinit        0074F2
intlevel0                      text         000000
intlevel1                      text         000000
intlevel2                      text         000000
intlevel3                      text         000000
itoa@base                      cstackCOMRAM 000015
itoa@buf                       cstackCOMRAM 000011
itoa@cp                        cstackCOMRAM 000017
itoa@val                       cstackCOMRAM 000013
stackhi                        (abs)        0007FF
stacklo                        (abs)        000060
start                          init         001000
start_initialization           cinit        0074C6
utoa@base                      cstackCOMRAM 00000C
utoa@buf                       cstackCOMRAM 000008
utoa@c                         cstackCOMRAM 000010
utoa@v                         cstackCOMRAM 00000E
utoa@val                       cstackCOMRAM 00000A


FUNCTION INFORMATION:

 *************** function _main *****************
 Defined at:
		line 20 in file "main_Servo.c"
 Parameters:    Size  Location     Type
		None
 Auto vars:     Size  Location     Type
		None
 Return value:  Size  Location     Type
                  1    wreg      void 
 Registers used:
		wreg, fsr2l, fsr2h, status,2, status,0, tblptrl, tblptrh, tblptru, prodl, prodh, cstack
 Tracked objects:
		On entry : 
		On exit  : 
		Unchanged: 
 Data sizes:     COMRAM   BANK0   BANK1   BANK2   BANK3   BANK4   BANK5   BANK6   BANK7
      Params:         0       0       0       0       0       0       0       0       0
      Locals:         0       0       0       0       0       0       0       0       0
      Temps:          4       0       0       0       0       0       0       0       0
      Totals:         4       0       0       0       0       0       0       0       0
Total ram usage:        4 bytes
 Hardware stack levels required when called:    4
 This function calls:
		_EYRLCD_Clear
		_EYRLCD_Init
		_EYRLCD_WriteString
		___awtoft
		___ftadd
		___ftmul
		___fttol
		_delay_ms
		_delay_us
		_itoa
 This function is called by:
		Startup code after reset
 This function uses a non-reentrant model


 *************** function _itoa *****************
 Defined at:
		line 4 in file "C:\Program Files\Microchip\xc8\v1.37\sources\common\itoa.c"
 Parameters:    Size  Location     Type
  buf             2   16[COMRAM] PTR unsigned char 
		 -> GradosC(4), ServoC(4), 
  val             2   18[COMRAM] int 
  base            2   20[COMRAM] int 
 Auto vars:     Size  Location     Type
  cp              2   22[COMRAM] PTR unsigned char 
		 -> GradosC(4), ServoC(4), 
 Return value:  Size  Location     Type
                  2   16[COMRAM] PTR unsigned char 
 Registers used:
		wreg, fsr2l, fsr2h, status,2, status,0, cstack
 Tracked objects:
		On entry : 
		On exit  : 
		Unchanged: 
 Data sizes:     COMRAM   BANK0   BANK1   BANK2   BANK3   BANK4   BANK5   BANK6   BANK7
      Params:         6       0       0       0       0       0       0       0       0
      Locals:         2       0       0       0       0       0       0       0       0
      Temps:          0       0       0       0       0       0       0       0       0
      Totals:         8       0       0       0       0       0       0       0       0
Total ram usage:        8 bytes
 Hardware stack levels used:    1
 Hardware stack levels required when called:    2
 This function calls:
		_utoa
 This function is called by:
		_main
 This function uses a non-reentrant model


 *************** function _utoa *****************
 Defined at:
		line 17 in file "C:\Program Files\Microchip\xc8\v1.37\sources\common\itoa.c"
 Parameters:    Size  Location     Type
  buf             2    7[COMRAM] PTR unsigned char 
		 -> GradosC(4), ServoC(4), 
  val             2    9[COMRAM] unsigned int 
  base            2   11[COMRAM] int 
 Auto vars:     Size  Location     Type
  v               2   13[COMRAM] unsigned int 
  c               1   15[COMRAM] unsigned char 
 Return value:  Size  Location     Type
                  2    7[COMRAM] PTR unsigned char 
 Registers used:
		wreg, fsr2l, fsr2h, status,2, status,0, cstack
 Tracked objects:
		On entry : 
		On exit  : 
		Unchanged: 
 Data sizes:     COMRAM   BANK0   BANK1   BANK2   BANK3   BANK4   BANK5   BANK6   BANK7
      Params:         6       0       0       0       0       0       0       0       0
      Locals:         3       0       0       0       0       0       0       0       0
      Temps:          0       0       0       0       0       0       0       0       0
      Totals:         9       0       0       0       0       0       0       0       0
Total ram usage:        9 bytes
 Hardware stack levels used:    1
 Hardware stack levels required when called:    1
 This function calls:
		___lwdiv
		___lwmod
 This function is called by:
		_itoa
 This function uses a non-reentrant model


 *************** function ___lwmod *****************
 Defined at:
		line 8 in file "C:\Program Files\Microchip\xc8\v1.37\sources\common\lwmod.c"
 Parameters:    Size  Location     Type
  dividend        2    0[COMRAM] unsigned int 
  divisor         2    2[COMRAM] unsigned int 
 Auto vars:     Size  Location     Type
  counter         1    4[COMRAM] unsigned char 
 Return value:  Size  Location     Type
                  2    0[COMRAM] unsigned int 
 Registers used:
		wreg, status,2, status,0
 Tracked objects:
		On entry : 
		On exit  : 
		Unchanged: 
 Data sizes:     COMRAM   BANK0   BANK1   BANK2   BANK3   BANK4   BANK5   BANK6   BANK7
      Params:         4       0       0       0       0       0       0       0       0
      Locals:         1       0       0       0       0       0       0       0       0
      Temps:          0       0       0       0       0       0       0       0       0
      Totals:         5       0       0       0       0       0       0       0       0
Total ram usage:        5 bytes
 Hardware stack levels used:    1
 This function calls:
		Nothing
 This function is called by:
		_utoa
 This function uses a non-reentrant model


 *************** function ___lwdiv *****************
 Defined at:
		line 8 in file "C:\Program Files\Microchip\xc8\v1.37\sources\common\lwdiv.c"
 Parameters:    Size  Location     Type
  dividend        2    0[COMRAM] unsigned int 
  divisor         2    2[COMRAM] unsigned int 
 Auto vars:     Size  Location     Type
  quotient        2    4[COMRAM] unsigned int 
  counter         1    6[COMRAM] unsigned char 
 Return value:  Size  Location     Type
                  2    0[COMRAM] unsigned int 
 Registers used:
		wreg, status,2, status,0
 Tracked objects:
		On entry : 
		On exit  : 
		Unchanged: 
 Data sizes:     COMRAM   BANK0   BANK1   BANK2   BANK3   BANK4   BANK5   BANK6   BANK7
      Params:         4       0       0       0       0       0       0       0       0
      Locals:         3       0       0       0       0       0       0       0       0
      Temps:          0       0       0       0       0       0       0       0       0
      Totals:         7       0       0       0       0       0       0       0       0
Total ram usage:        7 bytes
 Hardware stack levels used:    1
 This function calls:
		Nothing
 This function is called by:
		_utoa
 This function uses a non-reentrant model


 *************** function _delay_us *****************
 Defined at:
		line 152 in file "Alteri.h"
 Parameters:    Size  Location     Type
  n               4    0[COMRAM] long 
 Auto vars:     Size  Location     Type
		None
 Return value:  Size  Location     Type
                  1    wreg      void 
 Registers used:
		wreg, status,2, status,0
 Tracked objects:
		On entry : 
		On exit  : 
		Unchanged: 
 Data sizes:     COMRAM   BANK0   BANK1   BANK2   BANK3   BANK4   BANK5   BANK6   BANK7
      Params:         4       0       0       0       0       0       0       0       0
      Locals:         0       0       0       0       0       0       0       0       0
      Temps:          0       0       0       0       0       0       0       0       0
      Totals:         4       0       0       0       0       0       0       0       0
Total ram usage:        4 bytes
 Hardware stack levels used:    1
 This function calls:
		Nothing
 This function is called by:
		_main
 This function uses a non-reentrant model


 *************** function _delay_ms *****************
 Defined at:
		line 146 in file "Alteri.h"
 Parameters:    Size  Location     Type
  n               4    0[COMRAM] long 
 Auto vars:     Size  Location     Type
		None
 Return value:  Size  Location     Type
                  1    wreg      void 
 Registers used:
		wreg, status,2, status,0
 Tracked objects:
		On entry : 
		On exit  : 
		Unchanged: 
 Data sizes:     COMRAM   BANK0   BANK1   BANK2   BANK3   BANK4   BANK5   BANK6   BANK7
      Params:         4       0       0       0       0       0       0       0       0
      Locals:         0       0       0       0       0       0       0       0       0
      Temps:          1       0       0       0       0       0       0       0       0
      Totals:         5       0       0       0       0       0       0       0       0
Total ram usage:        5 bytes
 Hardware stack levels used:    1
 This function calls:
		Nothing
 This function is called by:
		_main
 This function uses a non-reentrant model


 *************** function ___fttol *****************
 Defined at:
		line 44 in file "C:\Program Files\Microchip\xc8\v1.37\sources\common\fttol.c"
 Parameters:    Size  Location     Type
  f1              3   39[COMRAM] float 
 Auto vars:     Size  Location     Type
  lval            4   49[COMRAM] unsigned long 
  exp1            1   53[COMRAM] unsigned char 
  sign1           1   48[COMRAM] unsigned char 
 Return value:  Size  Location     Type
                  4   39[COMRAM] long 
 Registers used:
		wreg, status,2, status,0
 Tracked objects:
		On entry : 
		On exit  : 
		Unchanged: 
 Data sizes:     COMRAM   BANK0   BANK1   BANK2   BANK3   BANK4   BANK5   BANK6   BANK7
      Params:         4       0       0       0       0       0       0       0       0
      Locals:         6       0       0       0       0       0       0       0       0
      Temps:          5       0       0       0       0       0       0       0       0
      Totals:        15       0       0       0       0       0       0       0       0
Total ram usage:       15 bytes
 Hardware stack levels used:    1
 This function calls:
		Nothing
 This function is called by:
		_main
 This function uses a non-reentrant model


 *************** function ___ftmul *****************
 Defined at:
		line 62 in file "C:\Program Files\Microchip\xc8\v1.37\sources\common\ftmul.c"
 Parameters:    Size  Location     Type
  f1              3   12[COMRAM] float 
  f2              3   15[COMRAM] float 
 Auto vars:     Size  Location     Type
  f3_as_produc    3   22[COMRAM] unsigned um
  sign            1   26[COMRAM] unsigned char 
  cntr            1   25[COMRAM] unsigned char 
  exp             1   21[COMRAM] unsigned char 
 Return value:  Size  Location     Type
                  3   12[COMRAM] float 
 Registers used:
		wreg, status,2, status,0, cstack
 Tracked objects:
		On entry : 
		On exit  : 
		Unchanged: 
 Data sizes:     COMRAM   BANK0   BANK1   BANK2   BANK3   BANK4   BANK5   BANK6   BANK7
      Params:         6       0       0       0       0       0       0       0       0
      Locals:         6       0       0       0       0       0       0       0       0
      Temps:          3       0       0       0       0       0       0       0       0
      Totals:        15       0       0       0       0       0       0       0       0
Total ram usage:       15 bytes
 Hardware stack levels used:    1
 Hardware stack levels required when called:    1
 This function calls:
		___ftpack
 This function is called by:
		_main
 This function uses a non-reentrant model


 *************** function ___ftadd *****************
 Defined at:
		line 86 in file "C:\Program Files\Microchip\xc8\v1.37\sources\common\ftadd.c"
 Parameters:    Size  Location     Type
  f1              3   27[COMRAM] float 
  f2              3   30[COMRAM] float 
 Auto vars:     Size  Location     Type
  exp1            1   38[COMRAM] unsigned char 
  exp2            1   37[COMRAM] unsigned char 
  sign            1   36[COMRAM] unsigned char 
 Return value:  Size  Location     Type
                  3   27[COMRAM] float 
 Registers used:
		wreg, status,2, status,0, cstack
 Tracked objects:
		On entry : 
		On exit  : 
		Unchanged: 
 Data sizes:     COMRAM   BANK0   BANK1   BANK2   BANK3   BANK4   BANK5   BANK6   BANK7
      Params:         6       0       0       0       0       0       0       0       0
      Locals:         3       0       0       0       0       0       0       0       0
      Temps:          3       0       0       0       0       0       0       0       0
      Totals:        12       0       0       0       0       0       0       0       0
Total ram usage:       12 bytes
 Hardware stack levels used:    1
 Hardware stack levels required when called:    1
 This function calls:
		___ftpack
 This function is called by:
		_main
 This function uses a non-reentrant model


 *************** function ___awtoft *****************
 Defined at:
		line 32 in file "C:\Program Files\Microchip\xc8\v1.37\sources\common\awtoft.c"
 Parameters:    Size  Location     Type
  c               2    8[COMRAM] int 
 Auto vars:     Size  Location     Type
  sign            1   11[COMRAM] unsigned char 
 Return value:  Size  Location     Type
                  3    8[COMRAM] float 
 Registers used:
		wreg, status,2, status,0, cstack
 Tracked objects:
		On entry : 
		On exit  : 
		Unchanged: 
 Data sizes:     COMRAM   BANK0   BANK1   BANK2   BANK3   BANK4   BANK5   BANK6   BANK7
      Params:         3       0       0       0       0       0       0       0       0
      Locals:         1       0       0       0       0       0       0       0       0
      Temps:          0       0       0       0       0       0       0       0       0
      Totals:         4       0       0       0       0       0       0       0       0
Total ram usage:        4 bytes
 Hardware stack levels used:    1
 Hardware stack levels required when called:    1
 This function calls:
		___ftpack
 This function is called by:
		_main
 This function uses a non-reentrant model


 *************** function ___ftpack *****************
 Defined at:
		line 62 in file "C:\Program Files\Microchip\xc8\v1.37\sources\common\float.c"
 Parameters:    Size  Location     Type
  arg             3    0[COMRAM] unsigned um
  exp             1    3[COMRAM] unsigned char 
  sign            1    4[COMRAM] unsigned char 
 Auto vars:     Size  Location     Type
		None
 Return value:  Size  Location     Type
                  3    0[COMRAM] float 
 Registers used:
		wreg, status,2, status,0
 Tracked objects:
		On entry : 
		On exit  : 
		Unchanged: 
 Data sizes:     COMRAM   BANK0   BANK1   BANK2   BANK3   BANK4   BANK5   BANK6   BANK7
      Params:         5       0       0       0       0       0       0       0       0
      Locals:         0       0       0       0       0       0       0       0       0
      Temps:          3       0       0       0       0       0       0       0       0
      Totals:         8       0       0       0       0       0       0       0       0
Total ram usage:        8 bytes
 Hardware stack levels used:    1
 This function calls:
		Nothing
 This function is called by:
		___awtoft
		___ftadd
		___ftmul
 This function uses a non-reentrant model


 *************** function _EYRLCD_WriteString *****************
 Defined at:
		line 107 in file "PCD8544.c"
 Parameters:    Size  Location     Type
  DATA_STRING     2   13[COMRAM] PTR unsigned char 
		 -> GradosC(4), ServoC(4), STR_2(9), STR_1(17), 
  X               1   15[COMRAM] unsigned char 
  Y               1   16[COMRAM] unsigned char 
 Auto vars:     Size  Location     Type
		None
 Return value:  Size  Location     Type
                  1    wreg      void 
 Registers used:
		wreg, fsr2l, fsr2h, status,2, status,0, tblptrl, tblptrh, tblptru, prodl, prodh, cstack
 Tracked objects:
		On entry : 
		On exit  : 
		Unchanged: 
 Data sizes:     COMRAM   BANK0   BANK1   BANK2   BANK3   BANK4   BANK5   BANK6   BANK7
      Params:         4       0       0       0       0       0       0       0       0
      Locals:         0       0       0       0       0       0       0       0       0
      Temps:          0       0       0       0       0       0       0       0       0
      Totals:         4       0       0       0       0       0       0       0       0
Total ram usage:        4 bytes
 Hardware stack levels used:    1
 Hardware stack levels required when called:    3
 This function calls:
		_EYRLCD_GotoXY
		_EYRLCD_WriteByte
 This function is called by:
		_main
 This function uses a non-reentrant model


 *************** function _EYRLCD_WriteByte *****************
 Defined at:
		line 91 in file "PCD8544.c"
 Parameters:    Size  Location     Type
  DATA_CHAR       1    wreg     unsigned char 
 Auto vars:     Size  Location     Type
  DATA_CHAR       1   10[COMRAM] unsigned char 
  index           2   11[COMRAM] int 
 Return value:  Size  Location     Type
                  1    wreg      void 
 Registers used:
		wreg, status,2, status,0, tblptrl, tblptrh, tblptru, prodl, prodh, cstack
 Tracked objects:
		On entry : 
		On exit  : 
		Unchanged: 
 Data sizes:     COMRAM   BANK0   BANK1   BANK2   BANK3   BANK4   BANK5   BANK6   BANK7
      Params:         0       0       0       0       0       0       0       0       0
      Locals:         3       0       0       0       0       0       0       0       0
      Temps:          2       0       0       0       0       0       0       0       0
      Totals:         5       0       0       0       0       0       0       0       0
Total ram usage:        5 bytes
 Hardware stack levels used:    1
 Hardware stack levels required when called:    2
 This function calls:
		_EYRLCD_Write
		___wmul
 This function is called by:
		_EYRLCD_WriteString
 This function uses a non-reentrant model


 *************** function ___wmul *****************
 Defined at:
		line 15 in file "C:\Program Files\Microchip\xc8\v1.37\sources\common\Umul16.c"
 Parameters:    Size  Location     Type
  multiplier      2    0[COMRAM] unsigned int 
  multiplicand    2    2[COMRAM] unsigned int 
 Auto vars:     Size  Location     Type
  product         2    4[COMRAM] unsigned int 
 Return value:  Size  Location     Type
                  2    0[COMRAM] unsigned int 
 Registers used:
		wreg, status,2, status,0, prodl, prodh
 Tracked objects:
		On entry : 
		On exit  : 
		Unchanged: 
 Data sizes:     COMRAM   BANK0   BANK1   BANK2   BANK3   BANK4   BANK5   BANK6   BANK7
      Params:         4       0       0       0       0       0       0       0       0
      Locals:         2       0       0       0       0       0       0       0       0
      Temps:          0       0       0       0       0       0       0       0       0
      Totals:         6       0       0       0       0       0       0       0       0
Total ram usage:        6 bytes
 Hardware stack levels used:    1
 This function calls:
		Nothing
 This function is called by:
		_EYRLCD_WriteByte
 This function uses a non-reentrant model


 *************** function _EYRLCD_Init *****************
 Defined at:
		line 33 in file "PCD8544.c"
 Parameters:    Size  Location     Type
		None
 Auto vars:     Size  Location     Type
		None
 Return value:  Size  Location     Type
                  1    wreg      void 
 Registers used:
		wreg, status,2, status,0, cstack
 Tracked objects:
		On entry : 
		On exit  : 
		Unchanged: 
 Data sizes:     COMRAM   BANK0   BANK1   BANK2   BANK3   BANK4   BANK5   BANK6   BANK7
      Params:         0       0       0       0       0       0       0       0       0
      Locals:         0       0       0       0       0       0       0       0       0
      Temps:          0       0       0       0       0       0       0       0       0
      Totals:         0       0       0       0       0       0       0       0       0
Total ram usage:        0 bytes
 Hardware stack levels used:    1
 Hardware stack levels required when called:    2
 This function calls:
		_EYRLCD_Write
 This function is called by:
		_main
 This function uses a non-reentrant model


 *************** function _EYRLCD_Clear *****************
 Defined at:
		line 61 in file "PCD8544.c"
 Parameters:    Size  Location     Type
		None
 Auto vars:     Size  Location     Type
  index           2   10[COMRAM] int 
 Return value:  Size  Location     Type
                  1    wreg      void 
 Registers used:
		wreg, status,2, status,0, cstack
 Tracked objects:
		On entry : 
		On exit  : 
		Unchanged: 
 Data sizes:     COMRAM   BANK0   BANK1   BANK2   BANK3   BANK4   BANK5   BANK6   BANK7
      Params:         0       0       0       0       0       0       0       0       0
      Locals:         2       0       0       0       0       0       0       0       0
      Temps:          0       0       0       0       0       0       0       0       0
      Totals:         2       0       0       0       0       0       0       0       0
Total ram usage:        2 bytes
 Hardware stack levels used:    1
 Hardware stack levels required when called:    3
 This function calls:
		_EYRLCD_GotoXY
		_EYRLCD_Write
 This function is called by:
		_main
 This function uses a non-reentrant model


 *************** function _EYRLCD_GotoXY *****************
 Defined at:
		line 75 in file "PCD8544.c"
 Parameters:    Size  Location     Type
  X               1    wreg     unsigned char 
  Y               1    8[COMRAM] unsigned char 
 Auto vars:     Size  Location     Type
  X               1    9[COMRAM] unsigned char 
 Return value:  Size  Location     Type
                  1    wreg      void 
 Registers used:
		wreg, status,2, status,0, cstack
 Tracked objects:
		On entry : 
		On exit  : 
		Unchanged: 
 Data sizes:     COMRAM   BANK0   BANK1   BANK2   BANK3   BANK4   BANK5   BANK6   BANK7
      Params:         1       0       0       0       0       0       0       0       0
      Locals:         1       0       0       0       0       0       0       0       0
      Temps:          0       0       0       0       0       0       0       0       0
      Totals:         2       0       0       0       0       0       0       0       0
Total ram usage:        2 bytes
 Hardware stack levels used:    1
 Hardware stack levels required when called:    2
 This function calls:
		_EYRLCD_Write
 This function is called by:
		_EYRLCD_Clear
		_EYRLCD_WriteString
		_EYRLCD_Bitmap
 This function uses a non-reentrant model


 *************** function _EYRLCD_Write *****************
 Defined at:
		line 138 in file "PCD8544.c"
 Parameters:    Size  Location     Type
  MODE            1    wreg     unsigned char 
  DATA            1    6[COMRAM] unsigned char 
 Auto vars:     Size  Location     Type
  MODE            1    7[COMRAM] unsigned char 
 Return value:  Size  Location     Type
                  1    wreg      void 
 Registers used:
		wreg, status,2, status,0, cstack
 Tracked objects:
		On entry : 
		On exit  : 
		Unchanged: 
 Data sizes:     COMRAM   BANK0   BANK1   BANK2   BANK3   BANK4   BANK5   BANK6   BANK7
      Params:         1       0       0       0       0       0       0       0       0
      Locals:         1       0       0       0       0       0       0       0       0
      Temps:          0       0       0       0       0       0       0       0       0
      Totals:         2       0       0       0       0       0       0       0       0
Total ram usage:        2 bytes
 Hardware stack levels used:    1
 Hardware stack levels required when called:    1
 This function calls:
		_EYRLCD_WriteSPI
 This function is called by:
		_EYRLCD_Init
		_EYRLCD_Clear
		_EYRLCD_GotoXY
		_EYRLCD_WriteByte
		_EYRLCD_Bitmap
 This function uses a non-reentrant model


 *************** function _EYRLCD_WriteSPI *****************
 Defined at:
		line 155 in file "PCD8544.c"
 Parameters:    Size  Location     Type
  outputDATA      1    wreg     unsigned char 
 Auto vars:     Size  Location     Type
  outputDATA      1    0[COMRAM] unsigned char 
  BitCount        1    1[COMRAM] unsigned char 
 Return value:  Size  Location     Type
                  1    wreg      void 
 Registers used:
		wreg, status,2, status,0
 Tracked objects:
		On entry : 
		On exit  : 
		Unchanged: 
 Data sizes:     COMRAM   BANK0   BANK1   BANK2   BANK3   BANK4   BANK5   BANK6   BANK7
      Params:         0       0       0       0       0       0       0       0       0
      Locals:         2       0       0       0       0       0       0       0       0
      Temps:          0       0       0       0       0       0       0       0       0
      Totals:         2       0       0       0       0       0       0       0       0
Total ram usage:        2 bytes
 Hardware stack levels used:    1
 This function calls:
		Nothing
 This function is called by:
		_EYRLCD_Write
 This function uses a non-reentrant model



MODULE INFORMATION

Module		Function		Class		Link	Load	Size
C:\Program Files\Microchip\xc8\v1.37\sources\common\fttol.c
		___fttol       		CODE           	7976	0000	245

C:\Program Files\Microchip\xc8\v1.37\sources\common\fttol.c estimated size: 245

C:\Program Files\Microchip\xc8\v1.37\sources\common\lwdiv.c
		___lwdiv       		CODE           	7608	0000	83

C:\Program Files\Microchip\xc8\v1.37\sources\common\lwdiv.c estimated size: 83

C:\Program Files\Microchip\xc8\v1.37\sources\common\ftadd.c
		___ftadd       		CODE           	7A6A	0000	429

C:\Program Files\Microchip\xc8\v1.37\sources\common\ftadd.c estimated size: 429

PCD8544.c
		_EYRLCD_Init   		CODE           	75B8	0000	81
		_EYRLCD_Write  		CODE           	73B0	0000	25
		_EYRLCD_Clear  		CODE           	745C	0000	53
		_EYRLCD_GotoXY 		CODE           	73C8	0000	29
		_EYRLCD_WriteByte		CODE           	76B6	0000	123
		_EYRLCD_WriteSPI		CODE           	73E4	0000	39
		_EYRLCD_WriteString		CODE           	765A	0000	93

PCD8544.c estimated size: 443

C:\Program Files\Microchip\xc8\v1.37\sources\common\awtoft.c
		___awtoft      		CODE           	74FC	0000	57

C:\Program Files\Microchip\xc8\v1.37\sources\common\awtoft.c estimated size: 57

C:\Program Files\Microchip\xc8\v1.37\sources\common\float.c
		___ftpack      		CODE           	77D4	0000	175

C:\Program Files\Microchip\xc8\v1.37\sources\common\float.c estimated size: 175

Alteri.h
		_delay_us      		CODE           	7430	0000	45
		_delay_ms      		CODE           	7490	0000	55

Alteri.h estimated size: 100

C:\Program Files\Microchip\xc8\v1.37\sources\common\itoa.c
		_itoa          		CODE           	7576	0000	67
		_utoa          		CODE           	7730	0000	165

C:\Program Files\Microchip\xc8\v1.37\sources\common\itoa.c estimated size: 232

main_Servo.c
		_main          		CODE           	7C16	0000	495

main_Servo.c estimated size: 495

shared
		_FONT_1        		MEDIUMCONST    	7E05	0000	481
		__initialization		CODE           	74C6	0000	45

shared estimated size: 526

C:\Program Files\Microchip\xc8\v1.37\sources\common\lwmod.c
		___lwmod       		CODE           	7534	0000	67

C:\Program Files\Microchip\xc8\v1.37\sources\common\lwmod.c estimated size: 67

C:\Program Files\Microchip\xc8\v1.37\sources\common\ftmul.c
		___ftmul       		CODE           	7882	0000	245

C:\Program Files\Microchip\xc8\v1.37\sources\common\ftmul.c estimated size: 245

C:\Program Files\Microchip\xc8\v1.37\sources\common\Umul16.c
		___wmul        		CODE           	740A	0000	39

C:\Program Files\Microchip\xc8\v1.37\sources\common\Umul16.c estimated size: 39

